{
  "_format": "hh-sol-artifact-1",
  "contractName": "InvestmentClub",
  "sourceName": "contracts/InvestmentClub.sol",
  "abi": [
    {
      "inputs": [],
      "stateMutability": "nonpayable",
      "type": "constructor"
    },
    {
      "anonymous": false,
      "inputs": [
        {
          "indexed": false,
          "internalType": "uint256",
          "name": "clubId",
          "type": "uint256"
        },
        {
          "indexed": false,
          "internalType": "address",
          "name": "creator",
          "type": "address"
        },
        {
          "indexed": false,
          "internalType": "uint256",
          "name": "priceFeed",
          "type": "uint256"
        },
        {
          "indexed": false,
          "internalType": "uint256",
          "name": "predictedPrice",
          "type": "uint256"
        }
      ],
      "name": "Gamemember",
      "type": "event"
    },
    {
      "inputs": [],
      "name": "EntryTime",
      "outputs": [
        {
          "internalType": "uint256",
          "name": "",
          "type": "uint256"
        }
      ],
      "stateMutability": "view",
      "type": "function"
    },
    {
      "inputs": [
        {
          "internalType": "uint256",
          "name": "clubId",
          "type": "uint256"
        },
        {
          "internalType": "uint256",
          "name": "Price",
          "type": "uint256"
        },
        {
          "internalType": "address",
          "name": "destination",
          "type": "address"
        },
        {
          "internalType": "uint256",
          "name": "PredictedPrice",
          "type": "uint256"
        }
      ],
      "name": "FillGameMember",
      "outputs": [
        {
          "internalType": "uint256",
          "name": "",
          "type": "uint256"
        }
      ],
      "stateMutability": "nonpayable",
      "type": "function"
    },
    {
      "inputs": [],
      "name": "LPrice",
      "outputs": [
        {
          "internalType": "uint256",
          "name": "",
          "type": "uint256"
        }
      ],
      "stateMutability": "view",
      "type": "function"
    },
    {
      "inputs": [
        {
          "internalType": "int256",
          "name": "",
          "type": "int256"
        }
      ],
      "name": "LatestPrice",
      "outputs": [
        {
          "internalType": "int256",
          "name": "",
          "type": "int256"
        }
      ],
      "stateMutability": "view",
      "type": "function"
    },
    {
      "inputs": [
        {
          "internalType": "uint256",
          "name": "_price",
          "type": "uint256"
        }
      ],
      "name": "StoredDatafeed",
      "outputs": [],
      "stateMutability": "nonpayable",
      "type": "function"
    },
    {
      "inputs": [
        {
          "internalType": "uint256",
          "name": "clubId",
          "type": "uint256"
        },
        {
          "internalType": "uint256",
          "name": "proposalId",
          "type": "uint256"
        },
        {
          "internalType": "uint256",
          "name": "newfeed",
          "type": "uint256"
        },
        {
          "internalType": "uint256",
          "name": "random",
          "type": "uint256"
        }
      ],
      "name": "UpdateRandom",
      "outputs": [],
      "stateMutability": "nonpayable",
      "type": "function"
    },
    {
      "inputs": [
        {
          "internalType": "uint256",
          "name": "clubId",
          "type": "uint256"
        },
        {
          "internalType": "uint256",
          "name": "proposalId",
          "type": "uint256"
        }
      ],
      "name": "closeProposal",
      "outputs": [],
      "stateMutability": "nonpayable",
      "type": "function"
    },
    {
      "inputs": [
        {
          "internalType": "uint256",
          "name": "clubId",
          "type": "uint256"
        }
      ],
      "name": "contributeToClub",
      "outputs": [],
      "stateMutability": "payable",
      "type": "function"
    },
    {
      "inputs": [
        {
          "internalType": "string",
          "name": "name",
          "type": "string"
        },
        {
          "internalType": "string",
          "name": "Cid",
          "type": "string"
        }
      ],
      "name": "createClub",
      "outputs": [
        {
          "internalType": "uint256",
          "name": "",
          "type": "uint256"
        }
      ],
      "stateMutability": "nonpayable",
      "type": "function"
    },
    {
      "inputs": [
        {
          "internalType": "uint256",
          "name": "clubId",
          "type": "uint256"
        },
        {
          "internalType": "uint256",
          "name": "amount",
          "type": "uint256"
        },
        {
          "internalType": "address",
          "name": "destination",
          "type": "address"
        },
        {
          "internalType": "string",
          "name": "description",
          "type": "string"
        },
        {
          "internalType": "string",
          "name": "Cid",
          "type": "string"
        }
      ],
      "name": "createProposal",
      "outputs": [],
      "stateMutability": "nonpayable",
      "type": "function"
    },
    {
      "inputs": [
        {
          "internalType": "uint256",
          "name": "clubId",
          "type": "uint256"
        },
        {
          "internalType": "uint256",
          "name": "proposalId",
          "type": "uint256"
        }
      ],
      "name": "executeProposal",
      "outputs": [],
      "stateMutability": "payable",
      "type": "function"
    },
    {
      "inputs": [
        {
          "internalType": "address",
          "name": "userAddress",
          "type": "address"
        },
        {
          "internalType": "uint256",
          "name": "clubId",
          "type": "uint256"
        }
      ],
      "name": "getBalanceByClub",
      "outputs": [
        {
          "internalType": "uint256",
          "name": "",
          "type": "uint256"
        }
      ],
      "stateMutability": "view",
      "type": "function"
    },
    {
      "inputs": [
        {
          "internalType": "uint256",
          "name": "clubId",
          "type": "uint256"
        },
        {
          "internalType": "uint256",
          "name": "proposalId",
          "type": "uint256"
        },
        {
          "internalType": "string",
          "name": "_Piece",
          "type": "string"
        },
        {
          "internalType": "string",
          "name": "_carsize",
          "type": "string"
        }
      ],
      "name": "getCarpiece",
      "outputs": [],
      "stateMutability": "nonpayable",
      "type": "function"
    },
    {
      "inputs": [],
      "name": "getChainlinkDataFeedLatestAnswer",
      "outputs": [
        {
          "internalType": "int256",
          "name": "",
          "type": "int256"
        }
      ],
      "stateMutability": "view",
      "type": "function"
    },
    {
      "inputs": [
        {
          "internalType": "uint256",
          "name": "clubId",
          "type": "uint256"
        }
      ],
      "name": "getClubById",
      "outputs": [
        {
          "components": [
            {
              "internalType": "uint256",
              "name": "clubId",
              "type": "uint256"
            },
            {
              "internalType": "string",
              "name": "name",
              "type": "string"
            },
            {
              "internalType": "uint256",
              "name": "memberCount",
              "type": "uint256"
            },
            {
              "internalType": "uint256",
              "name": "proposalCount",
              "type": "uint256"
            },
            {
              "internalType": "uint256",
              "name": "pool",
              "type": "uint256"
            },
            {
              "internalType": "uint256",
              "name": "clubcreatedAt",
              "type": "uint256"
            },
            {
              "internalType": "uint256",
              "name": "clubexpireAt",
              "type": "uint256"
            },
            {
              "internalType": "string",
              "name": "CID",
              "type": "string"
            },
            {
              "internalType": "string",
              "name": "posdiverification",
              "type": "string"
            },
            {
              "internalType": "uint256",
              "name": "DealId",
              "type": "uint256"
            }
          ],
          "internalType": "struct InvestmentClub.ClubInfo",
          "name": "",
          "type": "tuple"
        }
      ],
      "stateMutability": "view",
      "type": "function"
    },
    {
      "inputs": [
        {
          "internalType": "uint256",
          "name": "clubId",
          "type": "uint256"
        }
      ],
      "name": "getGameMemberByClub",
      "outputs": [
        {
          "components": [
            {
              "internalType": "uint256",
              "name": "clubId",
              "type": "uint256"
            },
            {
              "internalType": "address",
              "name": "creator",
              "type": "address"
            },
            {
              "internalType": "address",
              "name": "destination",
              "type": "address"
            },
            {
              "internalType": "uint256",
              "name": "proposedAt",
              "type": "uint256"
            },
            {
              "internalType": "uint256",
              "name": "proposalExpireAt",
              "type": "uint256"
            },
            {
              "internalType": "string",
              "name": "status",
              "type": "string"
            },
            {
              "internalType": "uint256",
              "name": "priceFeed",
              "type": "uint256"
            },
            {
              "internalType": "uint256",
              "name": "predictedPrice",
              "type": "uint256"
            },
            {
              "internalType": "uint256",
              "name": "FinalPrice",
              "type": "uint256"
            },
            {
              "internalType": "uint256",
              "name": "RandomNumber",
              "type": "uint256"
            }
          ],
          "internalType": "struct InvestmentClub.GameMemberInfo[]",
          "name": "",
          "type": "tuple[]"
        }
      ],
      "stateMutability": "view",
      "type": "function"
    },
    {
      "inputs": [
        {
          "internalType": "uint256",
          "name": "clubId",
          "type": "uint256"
        },
        {
          "internalType": "uint256",
          "name": "proposalId",
          "type": "uint256"
        }
      ],
      "name": "getGamememberById",
      "outputs": [
        {
          "components": [
            {
              "internalType": "uint256",
              "name": "clubId",
              "type": "uint256"
            },
            {
              "internalType": "address",
              "name": "creator",
              "type": "address"
            },
            {
              "internalType": "address",
              "name": "destination",
              "type": "address"
            },
            {
              "internalType": "uint256",
              "name": "proposedAt",
              "type": "uint256"
            },
            {
              "internalType": "uint256",
              "name": "proposalExpireAt",
              "type": "uint256"
            },
            {
              "internalType": "string",
              "name": "status",
              "type": "string"
            },
            {
              "internalType": "uint256",
              "name": "priceFeed",
              "type": "uint256"
            },
            {
              "internalType": "uint256",
              "name": "predictedPrice",
              "type": "uint256"
            },
            {
              "internalType": "uint256",
              "name": "FinalPrice",
              "type": "uint256"
            },
            {
              "internalType": "uint256",
              "name": "RandomNumber",
              "type": "uint256"
            }
          ],
          "internalType": "struct InvestmentClub.GameMemberInfo",
          "name": "",
          "type": "tuple"
        }
      ],
      "stateMutability": "view",
      "type": "function"
    },
    {
      "inputs": [],
      "name": "getMyClubs",
      "outputs": [
        {
          "components": [
            {
              "internalType": "uint256",
              "name": "clubId",
              "type": "uint256"
            },
            {
              "internalType": "string",
              "name": "name",
              "type": "string"
            },
            {
              "internalType": "uint256",
              "name": "memberCount",
              "type": "uint256"
            },
            {
              "internalType": "uint256",
              "name": "proposalCount",
              "type": "uint256"
            },
            {
              "internalType": "uint256",
              "name": "pool",
              "type": "uint256"
            },
            {
              "internalType": "uint256",
              "name": "clubcreatedAt",
              "type": "uint256"
            },
            {
              "internalType": "uint256",
              "name": "clubexpireAt",
              "type": "uint256"
            },
            {
              "internalType": "string",
              "name": "CID",
              "type": "string"
            },
            {
              "internalType": "string",
              "name": "posdiverification",
              "type": "string"
            },
            {
              "internalType": "uint256",
              "name": "DealId",
              "type": "uint256"
            }
          ],
          "internalType": "struct InvestmentClub.ClubInfo[]",
          "name": "",
          "type": "tuple[]"
        }
      ],
      "stateMutability": "view",
      "type": "function"
    },
    {
      "inputs": [
        {
          "internalType": "uint256",
          "name": "clubId",
          "type": "uint256"
        },
        {
          "internalType": "uint256",
          "name": "proposalId",
          "type": "uint256"
        }
      ],
      "name": "getProposalById",
      "outputs": [
        {
          "components": [
            {
              "internalType": "uint256",
              "name": "id",
              "type": "uint256"
            },
            {
              "internalType": "address",
              "name": "creator",
              "type": "address"
            },
            {
              "internalType": "uint256",
              "name": "amount",
              "type": "uint256"
            },
            {
              "internalType": "address",
              "name": "destination",
              "type": "address"
            },
            {
              "internalType": "string",
              "name": "status",
              "type": "string"
            },
            {
              "internalType": "string",
              "name": "description",
              "type": "string"
            },
            {
              "internalType": "uint256",
              "name": "votesFor",
              "type": "uint256"
            },
            {
              "internalType": "uint256",
              "name": "votesAgainst",
              "type": "uint256"
            },
            {
              "internalType": "uint256",
              "name": "proposedAt",
              "type": "uint256"
            },
            {
              "internalType": "uint256",
              "name": "proposalExpireAt",
              "type": "uint256"
            },
            {
              "internalType": "string",
              "name": "Cid",
              "type": "string"
            },
            {
              "internalType": "string",
              "name": "PieceCid",
              "type": "string"
            },
            {
              "internalType": "string",
              "name": "carsize",
              "type": "string"
            },
            {
              "internalType": "string",
              "name": "posdiverification",
              "type": "string"
            },
            {
              "internalType": "string",
              "name": "storageProvider",
              "type": "string"
            },
            {
              "internalType": "uint256",
              "name": "DealId",
              "type": "uint256"
            }
          ],
          "internalType": "struct InvestmentClub.ProposalInfo",
          "name": "",
          "type": "tuple"
        }
      ],
      "stateMutability": "view",
      "type": "function"
    },
    {
      "inputs": [
        {
          "internalType": "uint256",
          "name": "clubId",
          "type": "uint256"
        }
      ],
      "name": "getProposalsByClub",
      "outputs": [
        {
          "components": [
            {
              "internalType": "uint256",
              "name": "id",
              "type": "uint256"
            },
            {
              "internalType": "address",
              "name": "creator",
              "type": "address"
            },
            {
              "internalType": "uint256",
              "name": "amount",
              "type": "uint256"
            },
            {
              "internalType": "address",
              "name": "destination",
              "type": "address"
            },
            {
              "internalType": "string",
              "name": "status",
              "type": "string"
            },
            {
              "internalType": "string",
              "name": "description",
              "type": "string"
            },
            {
              "internalType": "uint256",
              "name": "votesFor",
              "type": "uint256"
            },
            {
              "internalType": "uint256",
              "name": "votesAgainst",
              "type": "uint256"
            },
            {
              "internalType": "uint256",
              "name": "proposedAt",
              "type": "uint256"
            },
            {
              "internalType": "uint256",
              "name": "proposalExpireAt",
              "type": "uint256"
            },
            {
              "internalType": "string",
              "name": "Cid",
              "type": "string"
            },
            {
              "internalType": "string",
              "name": "PieceCid",
              "type": "string"
            },
            {
              "internalType": "string",
              "name": "carsize",
              "type": "string"
            },
            {
              "internalType": "string",
              "name": "posdiverification",
              "type": "string"
            },
            {
              "internalType": "string",
              "name": "storageProvider",
              "type": "string"
            },
            {
              "internalType": "uint256",
              "name": "DealId",
              "type": "uint256"
            }
          ],
          "internalType": "struct InvestmentClub.ProposalInfo[]",
          "name": "",
          "type": "tuple[]"
        }
      ],
      "stateMutability": "view",
      "type": "function"
    },
    {
      "inputs": [
        {
          "internalType": "uint256",
          "name": "clubId",
          "type": "uint256"
        },
        {
          "internalType": "uint256",
          "name": "proposalId",
          "type": "uint256"
        },
        {
          "internalType": "uint256",
          "name": "_dealId",
          "type": "uint256"
        },
        {
          "internalType": "string",
          "name": "_storage",
          "type": "string"
        }
      ],
      "name": "getdelandstorgae",
      "outputs": [],
      "stateMutability": "nonpayable",
      "type": "function"
    },
    {
      "inputs": [
        {
          "internalType": "address",
          "name": "sender",
          "type": "address"
        },
        {
          "internalType": "uint256",
          "name": "proposalId",
          "type": "uint256"
        },
        {
          "internalType": "uint256",
          "name": "clubId",
          "type": "uint256"
        }
      ],
      "name": "hasVoted",
      "outputs": [
        {
          "internalType": "bool",
          "name": "",
          "type": "bool"
        }
      ],
      "stateMutability": "view",
      "type": "function"
    },
    {
      "inputs": [
        {
          "internalType": "uint256",
          "name": "clubId",
          "type": "uint256"
        }
      ],
      "name": "isClubFull",
      "outputs": [
        {
          "internalType": "bool",
          "name": "",
          "type": "bool"
        }
      ],
      "stateMutability": "view",
      "type": "function"
    },
    {
      "inputs": [
        {
          "internalType": "uint256",
          "name": "clubId",
          "type": "uint256"
        }
      ],
      "name": "isClubIdExist",
      "outputs": [
        {
          "internalType": "bool",
          "name": "",
          "type": "bool"
        }
      ],
      "stateMutability": "view",
      "type": "function"
    },
    {
      "inputs": [
        {
          "internalType": "uint256",
          "name": "proposalId",
          "type": "uint256"
        },
        {
          "internalType": "uint256",
          "name": "clubId",
          "type": "uint256"
        }
      ],
      "name": "isGamememberIdExist",
      "outputs": [
        {
          "internalType": "bool",
          "name": "",
          "type": "bool"
        }
      ],
      "stateMutability": "view",
      "type": "function"
    },
    {
      "inputs": [
        {
          "internalType": "address",
          "name": "memberAddress",
          "type": "address"
        },
        {
          "internalType": "uint256",
          "name": "clubId",
          "type": "uint256"
        }
      ],
      "name": "isMemberOfClub",
      "outputs": [
        {
          "internalType": "bool",
          "name": "",
          "type": "bool"
        }
      ],
      "stateMutability": "view",
      "type": "function"
    },
    {
      "inputs": [
        {
          "internalType": "uint256",
          "name": "proposalId",
          "type": "uint256"
        },
        {
          "internalType": "uint256",
          "name": "clubId",
          "type": "uint256"
        }
      ],
      "name": "isProposalIdExist",
      "outputs": [
        {
          "internalType": "bool",
          "name": "",
          "type": "bool"
        }
      ],
      "stateMutability": "view",
      "type": "function"
    },
    {
      "inputs": [
        {
          "internalType": "uint256",
          "name": "clubId",
          "type": "uint256"
        },
        {
          "internalType": "uint256",
          "name": "proposalId",
          "type": "uint256"
        }
      ],
      "name": "isVotingOn",
      "outputs": [
        {
          "internalType": "bool",
          "name": "",
          "type": "bool"
        }
      ],
      "stateMutability": "view",
      "type": "function"
    },
    {
      "inputs": [
        {
          "internalType": "uint256",
          "name": "clubId",
          "type": "uint256"
        },
        {
          "internalType": "uint256",
          "name": "proposalId",
          "type": "uint256"
        }
      ],
      "name": "isVotingOn1",
      "outputs": [
        {
          "internalType": "bool",
          "name": "",
          "type": "bool"
        }
      ],
      "stateMutability": "view",
      "type": "function"
    },
    {
      "inputs": [
        {
          "internalType": "uint256",
          "name": "clubId",
          "type": "uint256"
        }
      ],
      "name": "isclubopen",
      "outputs": [
        {
          "internalType": "bool",
          "name": "",
          "type": "bool"
        }
      ],
      "stateMutability": "view",
      "type": "function"
    },
    {
      "inputs": [
        {
          "internalType": "uint256",
          "name": "clubId",
          "type": "uint256"
        }
      ],
      "name": "joinClub",
      "outputs": [],
      "stateMutability": "nonpayable",
      "type": "function"
    },
    {
      "inputs": [
        {
          "internalType": "uint256",
          "name": "clubId",
          "type": "uint256"
        }
      ],
      "name": "leaveClub",
      "outputs": [],
      "stateMutability": "nonpayable",
      "type": "function"
    },
    {
      "inputs": [],
      "name": "listClubs",
      "outputs": [
        {
          "components": [
            {
              "internalType": "uint256",
              "name": "clubId",
              "type": "uint256"
            },
            {
              "internalType": "string",
              "name": "name",
              "type": "string"
            },
            {
              "internalType": "uint256",
              "name": "memberCount",
              "type": "uint256"
            },
            {
              "internalType": "uint256",
              "name": "proposalCount",
              "type": "uint256"
            },
            {
              "internalType": "uint256",
              "name": "pool",
              "type": "uint256"
            },
            {
              "internalType": "uint256",
              "name": "clubcreatedAt",
              "type": "uint256"
            },
            {
              "internalType": "uint256",
              "name": "clubexpireAt",
              "type": "uint256"
            },
            {
              "internalType": "string",
              "name": "CID",
              "type": "string"
            },
            {
              "internalType": "string",
              "name": "posdiverification",
              "type": "string"
            },
            {
              "internalType": "uint256",
              "name": "DealId",
              "type": "uint256"
            }
          ],
          "internalType": "struct InvestmentClub.ClubInfo[]",
          "name": "",
          "type": "tuple[]"
        }
      ],
      "stateMutability": "view",
      "type": "function"
    },
    {
      "inputs": [
        {
          "internalType": "uint256",
          "name": "clubId",
          "type": "uint256"
        },
        {
          "internalType": "uint256",
          "name": "proposalId",
          "type": "uint256"
        }
      ],
      "name": "proverifiydocs",
      "outputs": [],
      "stateMutability": "nonpayable",
      "type": "function"
    },
    {
      "inputs": [],
      "name": "show",
      "outputs": [
        {
          "internalType": "uint256",
          "name": "",
          "type": "uint256"
        }
      ],
      "stateMutability": "view",
      "type": "function"
    },
    {
      "inputs": [
        {
          "internalType": "uint256",
          "name": "clubId",
          "type": "uint256"
        }
      ],
      "name": "verifiydocs",
      "outputs": [],
      "stateMutability": "nonpayable",
      "type": "function"
    },
    {
      "inputs": [
        {
          "internalType": "uint256",
          "name": "clubId",
          "type": "uint256"
        },
        {
          "internalType": "uint256",
          "name": "proposalId",
          "type": "uint256"
        },
        {
          "internalType": "bool",
          "name": "vote",
          "type": "bool"
        }
      ],
      "name": "voteOnProposal",
      "outputs": [],
      "stateMutability": "nonpayable",
      "type": "function"
    }
  ],
  "bytecode": "0x608060405234801561001057600080fd5b507359f1ec1f10bd7ed9b938431086bc1d9e233ecf416000806101000a81548173ffffffffffffffffffffffffffffffffffffffff021916908373ffffffffffffffffffffffffffffffffffffffff16021790555060006003819055506000600481905550615f8f80620000856000396000f3fe60806040526004361061021a5760003560e01c8063647e598b11610123578063c2ba2756116100ab578063e7613ea81161006f578063e7613ea81461085b578063e7ddd0de14610884578063eec8e0db146108c1578063f9f2bb3c146108fe578063fb0e27761461093b5761021a565b8063c2ba275614610750578063c3741fed1461078d578063c4670878146107ca578063cc80f6f314610807578063e1542742146108325761021a565b806389972a32116100f257806389972a321461066b5780639d9087b914610694578063a4c22943146106bd578063ab7ca348146106e8578063bea4dfb5146107255761021a565b8063647e598b1461059f5780636764fd48146105c857806382b7661b14610605578063890e24561461062e5761021a565b8063288509b4116101a65780634d7f75c3116101755780634d7f75c3146104ba578063549710be146104e357806354a2e2331461050e5780635b2ade7c146105375780635ff847fb146105745761021a565b8063288509b4146103e757806334fa3d831461040357806335a1930f14610440578063487598ca1461047d5761021a565b80631063fd19116101ed5780631063fd19146102ff5780631155bdfd1461032857806314204fc6146103655780631ab76712146103a257806327449315146103be5761021a565b8063058694a91461021f57806305f0ef7c1461025c5780630e46d214146102855780630ee29404146102c2575b600080fd5b34801561022b57600080fd5b506102466004803603810190610241919061408e565b610966565b60405161025391906143e8565b60405180910390f35b34801561026857600080fd5b50610283600480360381019061027e919061440a565b610f69565b005b34801561029157600080fd5b506102ac60048036038101906102a7919061449d565b610fad565b6040516102b99190614513565b60405180910390f35b3480156102ce57600080fd5b506102e960048036038101906102e4919061452e565b61123f565b6040516102f6919061459c565b60405180910390f35b34801561030b57600080fd5b50610326600480360381019061032191906146ec565b6112bf565b005b34801561033457600080fd5b5061034f600480360381019061034a919061476f565b611313565b60405161035c919061459c565b60405180910390f35b34801561037157600080fd5b5061038c6004803603810190610387919061476f565b61134f565b6040516103999190614931565b60405180910390f35b6103bc60048036038101906103b7919061476f565b6118f0565b005b3480156103ca57600080fd5b506103e560048036038101906103e0919061408e565b611c04565b005b61040160048036038101906103fc919061408e565b611c0e565b005b34801561040f57600080fd5b5061042a60048036038101906104259190614953565b611ea4565b604051610437919061459c565b60405180910390f35b34801561044c57600080fd5b5061046760048036038101906104629190614993565b611f54565b6040516104749190614513565b60405180910390f35b34801561048957600080fd5b506104a4600480360381019061049f919061476f565b612124565b6040516104b19190614ae5565b60405180910390f35b3480156104c657600080fd5b506104e160048036038101906104dc919061408e565b612359565b005b3480156104ef57600080fd5b506104f8612494565b6040516105059190614cb1565b60405180910390f35b34801561051a57600080fd5b5061053560048036038101906105309190614cff565b61277b565b005b34801561054357600080fd5b5061055e6004803603810190610559919061408e565b6129fa565b60405161056b9190614eee565b60405180910390f35b34801561058057600080fd5b50610589612c91565b6040516105969190614cb1565b60405180910390f35b3480156105ab57600080fd5b506105c660048036038101906105c19190614f10565b612f5d565b005b3480156105d457600080fd5b506105ef60048036038101906105ea919061408e565b612fc1565b6040516105fc919061459c565b60405180910390f35b34801561061157600080fd5b5061062c6004803603810190610627919061408e565b612fe4565b005b34801561063a57600080fd5b5061065560048036038101906106509190614953565b613095565b6040516106629190614513565b60405180910390f35b34801561067757600080fd5b50610692600480360381019061068d9190614faf565b613101565b005b3480156106a057600080fd5b506106bb60048036038101906106b6919061476f565b6134cc565b005b3480156106c957600080fd5b506106d261354a565b6040516106df9190614513565b60405180910390f35b3480156106f457600080fd5b5061070f600480360381019061070a919061476f565b613550565b60405161071c919061459c565b60405180910390f35b34801561073157600080fd5b5061073a61358c565b604051610747919061507b565b60405180910390f35b34801561075c57600080fd5b506107776004803603810190610772919061476f565b61362b565b604051610784919061459c565b60405180910390f35b34801561079957600080fd5b506107b460048036038101906107af919061408e565b613663565b6040516107c1919061517e565b60405180910390f35b3480156107d657600080fd5b506107f160048036038101906107ec919061408e565b6138de565b6040516107fe919061459c565b60405180910390f35b34801561081357600080fd5b5061081c613901565b6040516108299190614513565b60405180910390f35b34801561083e57600080fd5b506108596004803603810190610854919061408e565b61390b565b005b34801561086757600080fd5b50610882600480360381019061087d919061476f565b613ae3565b005b34801561089057600080fd5b506108ab60048036038101906108a691906151cc565b613d1b565b6040516108b8919061507b565b60405180910390f35b3480156108cd57600080fd5b506108e860048036038101906108e3919061476f565b613d33565b6040516108f5919061459c565b60405180910390f35b34801561090a57600080fd5b506109256004803603810190610920919061408e565b613d6b565b604051610932919061459c565b60405180910390f35b34801561094757600080fd5b50610950613d92565b60405161095d9190614513565b60405180910390f35b606061097182612fc1565b6109b0576040517f08c379a00000000000000000000000000000000000000000000000000000000081526004016109a790615256565b60405180910390fd5b60006002600084815260200190815260200160002090506000816009015467ffffffffffffffff8111156109e7576109e66145c1565b5b604051908082528060200260200182016040528015610a2057816020015b610a0d613e26565b815260200190600190039081610a055790505b509050600080600190505b83600901548111610f5d5760008460070160008381526020019081526020016000209050604051806102000160405280826000015481526020018260010160009054906101000a900473ffffffffffffffffffffffffffffffffffffffff1673ffffffffffffffffffffffffffffffffffffffff168152602001826002015481526020018260030160009054906101000a900473ffffffffffffffffffffffffffffffffffffffff1673ffffffffffffffffffffffffffffffffffffffff168152602001826004018054610afe906152a5565b80601f0160208091040260200160405190810160405280929190818152602001828054610b2a906152a5565b8015610b775780601f10610b4c57610100808354040283529160200191610b77565b820191906000526020600020905b815481529060010190602001808311610b5a57829003601f168201915b50505050508152602001826005018054610b90906152a5565b80601f0160208091040260200160405190810160405280929190818152602001828054610bbc906152a5565b8015610c095780601f10610bde57610100808354040283529160200191610c09565b820191906000526020600020905b815481529060010190602001808311610bec57829003601f168201915b505050505081526020018260060154815260200182600701548152602001826008015481526020018260090154815260200182600a018054610c4a906152a5565b80601f0160208091040260200160405190810160405280929190818152602001828054610c76906152a5565b8015610cc35780601f10610c9857610100808354040283529160200191610cc3565b820191906000526020600020905b815481529060010190602001808311610ca657829003601f168201915b5050505050815260200182600b018054610cdc906152a5565b80601f0160208091040260200160405190810160405280929190818152602001828054610d08906152a5565b8015610d555780601f10610d2a57610100808354040283529160200191610d55565b820191906000526020600020905b815481529060010190602001808311610d3857829003601f168201915b5050505050815260200182600c018054610d6e906152a5565b80601f0160208091040260200160405190810160405280929190818152602001828054610d9a906152a5565b8015610de75780601f10610dbc57610100808354040283529160200191610de7565b820191906000526020600020905b815481529060010190602001808311610dca57829003601f168201915b5050505050815260200182600d018054610e00906152a5565b80601f0160208091040260200160405190810160405280929190818152602001828054610e2c906152a5565b8015610e795780601f10610e4e57610100808354040283529160200191610e79565b820191906000526020600020905b815481529060010190602001808311610e5c57829003601f168201915b5050505050815260200182600e018054610e92906152a5565b80601f0160208091040260200160405190810160405280929190818152602001828054610ebe906152a5565b8015610f0b5780601f10610ee057610100808354040283529160200191610f0b565b820191906000526020600020905b815481529060010190602001808311610eee57829003601f168201915b5050505050815260200182600f0154815250848481518110610f3057610f2f6152d7565b5b60200260200101819052508280610f4690615335565b935050508080610f5590615335565b915050610a2b565b50819350505050919050565b600060026000868152602001908152602001600020600801600085815260200190815260200160002090508281600801819055508181600901819055505050505050565b6000610fb885612fc1565b610ff7576040517f08c379a0000000000000000000000000000000000000000000000000000000008152600401610fee906153ca565b60405180910390fd5b60006002600087815260200190815260200160002090506110183387611ea4565b611057576040517f08c379a000000000000000000000000000000000000000000000000000000000815260040161104e90615436565b60405180910390fd5b60006001826009015461106a9190615456565b905060006002600089815260200190815260200160002060080160008381526020019081526020016000209050818160000181905550338160010160006101000a81548173ffffffffffffffffffffffffffffffffffffffff021916908373ffffffffffffffffffffffffffffffffffffffff160217905550858160020160006101000a81548173ffffffffffffffffffffffffffffffffffffffff021916908373ffffffffffffffffffffffffffffffffffffffff16021790555042816003018190555061016860075461113f9190615456565b81600401819055506040518060400160405280600781526020017f50656e64696e6700000000000000000000000000000000000000000000000000815250816005019080519060200190611194929190613ecf565b5086816006018190555084816007018190555060008160080181905550600081600901819055507f228e740011c0eca4806871633863164d54cfe348716c44ca34f3cbac63e7bf6681600001548260010160009054906101000a900473ffffffffffffffffffffffffffffffffffffffff168360060154846007015460405161122094939291906154bb565b60405180910390a1818360090181905550879350505050949350505050565b600060026000838152602001908152602001600020600701600084815260200190815260200160002060100160008573ffffffffffffffffffffffffffffffffffffffff1673ffffffffffffffffffffffffffffffffffffffff16815260200190815260200160002060009054906101000a900460ff1690509392505050565b600060026000868152602001908152602001600020600701600085815260200190815260200160002090508281600f01819055508181600e01908051906020019061130b929190613ecf565b505050505050565b60008060026000858152602001908152602001600020600701600084815260200190815260200160002090504281600901541191505092915050565b611357613e26565b61136083612fc1565b61139f576040517f08c379a0000000000000000000000000000000000000000000000000000000008152600401611396906153ca565b60405180910390fd5b6113a98284613d33565b6113e8576040517f08c379a00000000000000000000000000000000000000000000000000000000081526004016113df9061554c565b60405180910390fd5b600060026000858152602001908152602001600020600701600084815260200190815260200160002090506000604051806102000160405280836000015481526020018360010160009054906101000a900473ffffffffffffffffffffffffffffffffffffffff1673ffffffffffffffffffffffffffffffffffffffff168152602001836002015481526020018360030160009054906101000a900473ffffffffffffffffffffffffffffffffffffffff1673ffffffffffffffffffffffffffffffffffffffff1681526020018360040180546114c4906152a5565b80601f01602080910402602001604051908101604052809291908181526020018280546114f0906152a5565b801561153d5780601f106115125761010080835404028352916020019161153d565b820191906000526020600020905b81548152906001019060200180831161152057829003601f168201915b50505050508152602001836005018054611556906152a5565b80601f0160208091040260200160405190810160405280929190818152602001828054611582906152a5565b80156115cf5780601f106115a4576101008083540402835291602001916115cf565b820191906000526020600020905b8154815290600101906020018083116115b257829003601f168201915b505050505081526020018360060154815260200183600701548152602001836008015481526020018360090154815260200183600a018054611610906152a5565b80601f016020809104026020016040519081016040528092919081815260200182805461163c906152a5565b80156116895780601f1061165e57610100808354040283529160200191611689565b820191906000526020600020905b81548152906001019060200180831161166c57829003601f168201915b5050505050815260200183600b0180546116a2906152a5565b80601f01602080910402602001604051908101604052809291908181526020018280546116ce906152a5565b801561171b5780601f106116f05761010080835404028352916020019161171b565b820191906000526020600020905b8154815290600101906020018083116116fe57829003601f168201915b5050505050815260200183600c018054611734906152a5565b80601f0160208091040260200160405190810160405280929190818152602001828054611760906152a5565b80156117ad5780601f10611782576101008083540402835291602001916117ad565b820191906000526020600020905b81548152906001019060200180831161179057829003601f168201915b5050505050815260200183600d0180546117c6906152a5565b80601f01602080910402602001604051908101604052809291908181526020018280546117f2906152a5565b801561183f5780601f106118145761010080835404028352916020019161183f565b820191906000526020600020905b81548152906001019060200180831161182257829003601f168201915b5050505050815260200183600e018054611858906152a5565b80601f0160208091040260200160405190810160405280929190818152602001828054611884906152a5565b80156118d15780601f106118a6576101008083540402835291602001916118d1565b820191906000526020600020905b8154815290600101906020018083116118b457829003601f168201915b5050505050815260200183600f01548152509050809250505092915050565b60006002600084815260200190815260200160002090506000816007016000848152602001908152602001600020905061192984612fc1565b611968576040517f08c379a000000000000000000000000000000000000000000000000000000000815260040161195f906153ca565b60405180910390fd5b6119723385611ea4565b6119b1576040517f08c379a00000000000000000000000000000000000000000000000000000000081526004016119a890615436565b60405180910390fd5b6119bb8385613d33565b6119fa576040517f08c379a00000000000000000000000000000000000000000000000000000000081526004016119f19061554c565b60405180910390fd5b611a048484613d98565b611a43576040517f08c379a0000000000000000000000000000000000000000000000000000000008152600401611a3a906155de565b60405180910390fd5b806002015482600401541015611a8e576040517f08c379a0000000000000000000000000000000000000000000000000000000008152600401611a8590615670565b60405180910390fd5b8060070154816006015411611ad8576040517f08c379a0000000000000000000000000000000000000000000000000000000008152600401611acf90615702565b60405180910390fd5b611ae28484613550565b15611b22576040517f08c379a0000000000000000000000000000000000000000000000000000000008152600401611b1990615794565b60405180910390fd5b6040518060400160405280600881526020017f4578656375746564000000000000000000000000000000000000000000000000815250816004019080519060200190611b6f929190613ecf565b508060020154826004016000828254611b8891906157b4565b925050819055508060030160009054906101000a900473ffffffffffffffffffffffffffffffffffffffff1673ffffffffffffffffffffffffffffffffffffffff166108fc82600201549081150290604051600060405180830381858888f19350505050158015611bfd573d6000803e3d6000fd5b5050505050565b8060018190555050565b611c1781612fc1565b611c56576040517f08c379a0000000000000000000000000000000000000000000000000000000008152600401611c4d906153ca565b60405180910390fd5b6000600260008381526020019081526020016000209050611c773383611ea4565b611cb6576040517f08c379a0000000000000000000000000000000000000000000000000000000008152600401611cad90615436565b60405180910390fd5b60003411611cf9576040517f08c379a0000000000000000000000000000000000000000000000000000000008152600401611cf09061585a565b60405180910390fd5b611d0282613d6b565b611d41576040517f08c379a0000000000000000000000000000000000000000000000000000000008152600401611d38906158c6565b60405180910390fd5b60008160020160003373ffffffffffffffffffffffffffffffffffffffff1673ffffffffffffffffffffffffffffffffffffffff168152602001908152602001600020905034816001016000828254611d9a9190615456565b92505081905550600060405180604001604052803373ffffffffffffffffffffffffffffffffffffffff16815260200160008152509050808360020160003373ffffffffffffffffffffffffffffffffffffffff1673ffffffffffffffffffffffffffffffffffffffff16815260200190815260200160002060008201518160000160006101000a81548173ffffffffffffffffffffffffffffffffffffffff021916908373ffffffffffffffffffffffffffffffffffffffff160217905550602082015181600101559050506001836003016000828254611e7c9190615456565b9250508190555034836004016000828254611e979190615456565b9250508190555050505050565b60008073ffffffffffffffffffffffffffffffffffffffff166002600084815260200190815260200160002060020160008573ffffffffffffffffffffffffffffffffffffffff1673ffffffffffffffffffffffffffffffffffffffff16815260200190815260200160002060000160009054906101000a900473ffffffffffffffffffffffffffffffffffffffff1673ffffffffffffffffffffffffffffffffffffffff161415905092915050565b6000806001600354611f669190615456565b9050600060026000838152602001908152602001600020905081816000018190555084816001019080519060200190611fa0929190613ecf565b506000816004018190555060008160090181905550600181600301819055504281600501819055504260078190555060b442611fdc9190615456565b81600601819055508381600a019080519060200190611ffc929190613ecf565b506040518060400160405280600781526020017f50656e64696e670000000000000000000000000000000000000000000000000081525081600b01908051906020019061204a929190613ecf565b50600060405180604001604052803373ffffffffffffffffffffffffffffffffffffffff16815260200160008152509050808260020160003373ffffffffffffffffffffffffffffffffffffffff1673ffffffffffffffffffffffffffffffffffffffff16815260200190815260200160002060008201518160000160006101000a81548173ffffffffffffffffffffffffffffffffffffffff021916908373ffffffffffffffffffffffffffffffffffffffff160217905550602082015181600101559050508260038190555082935050505092915050565b61212c613f55565b61213583612fc1565b612174576040517f08c379a000000000000000000000000000000000000000000000000000000000815260040161216b906153ca565b60405180910390fd5b61217e828461362b565b6121bd576040517f08c379a00000000000000000000000000000000000000000000000000000000081526004016121b49061554c565b60405180910390fd5b600060026000858152602001908152602001600020600801600084815260200190815260200160002090506000604051806101400160405280836000015481526020018360010160009054906101000a900473ffffffffffffffffffffffffffffffffffffffff1673ffffffffffffffffffffffffffffffffffffffff1681526020018360020160009054906101000a900473ffffffffffffffffffffffffffffffffffffffff1673ffffffffffffffffffffffffffffffffffffffff16815260200183600301548152602001836004015481526020018360050180546122a3906152a5565b80601f01602080910402602001604051908101604052809291908181526020018280546122cf906152a5565b801561231c5780601f106122f15761010080835404028352916020019161231c565b820191906000526020600020905b8154815290600101906020018083116122ff57829003601f168201915b5050505050815260200183600601548152602001836007015481526020018360080154815260200183600901548152509050809250505092915050565b61236281612fc1565b6123a1576040517f08c379a0000000000000000000000000000000000000000000000000000000008152600401612398906153ca565b60405180910390fd5b60006002600083815260200190815260200160002090506123c23383611ea4565b612401576040517f08c379a00000000000000000000000000000000000000000000000000000000081526004016123f890615436565b60405180910390fd5b600181600301600082825461241691906157b4565b925050819055508060020160003373ffffffffffffffffffffffffffffffffffffffff1673ffffffffffffffffffffffffffffffffffffffff168152602001908152602001600020600080820160006101000a81549073ffffffffffffffffffffffffffffffffffffffff0219169055600182016000905550505050565b6060600060035467ffffffffffffffff8111156124b4576124b36145c1565b5b6040519080825280602002602001820160405280156124ed57816020015b6124da613fd4565b8152602001906001900390816124d25790505b509050600080600190505b6003548111612772576000600260008381526020019081526020016000209050612526338260000154611ea4565b1561275e5760405180610140016040528082600001548152602001826001018054612550906152a5565b80601f016020809104026020016040519081016040528092919081815260200182805461257c906152a5565b80156125c95780601f1061259e576101008083540402835291602001916125c9565b820191906000526020600020905b8154815290600101906020018083116125ac57829003601f168201915b50505050508152602001826003015481526020018260090154815260200182600401548152602001826005015481526020018260060154815260200182600a018054612614906152a5565b80601f0160208091040260200160405190810160405280929190818152602001828054612640906152a5565b801561268d5780601f106126625761010080835404028352916020019161268d565b820191906000526020600020905b81548152906001019060200180831161267057829003601f168201915b5050505050815260200182600b0180546126a6906152a5565b80601f01602080910402602001604051908101604052809291908181526020018280546126d2906152a5565b801561271f5780601f106126f45761010080835404028352916020019161271f565b820191906000526020600020905b81548152906001019060200180831161270257829003601f168201915b5050505050815260200182600c0154815250848481518110612744576127436152d7565b5b6020026020010181905250828061275a90615335565b9350505b50808061276a90615335565b9150506124f8565b50819250505090565b61278483612fc1565b6127c3576040517f08c379a00000000000000000000000000000000000000000000000000000000081526004016127ba906153ca565b60405180910390fd5b6127cd8383613550565b61280c576040517f08c379a000000000000000000000000000000000000000000000000000000000815260040161280390615932565b60405180910390fd5b600060026000858152602001908152602001600020905061282d3385611ea4565b61286c576040517f08c379a000000000000000000000000000000000000000000000000000000000815260040161286390615436565b60405180910390fd5b6128768385613d33565b6128b5576040517f08c379a00000000000000000000000000000000000000000000000000000000081526004016128ac9061554c565b60405180910390fd5b600081600701600085815260200190815260200160002090506128d933858761123f565b15612919576040517f08c379a0000000000000000000000000000000000000000000000000000000008152600401612910906159c4565b60405180910390fd5b6040518060400160405280600781526020017f50656e64696e670000000000000000000000000000000000000000000000000081525080519060200120816004016040516129679190615a83565b6040518091039020146129af576040517f08c379a00000000000000000000000000000000000000000000000000000000081526004016129a690615b0c565b60405180910390fd5b82156129d65760018160060160008282546129ca9190615456565b925050819055506129f3565b60018160070160008282546129eb9190615456565b925050819055505b5050505050565b6060612a0582612fc1565b612a44576040517f08c379a0000000000000000000000000000000000000000000000000000000008152600401612a3b90615256565b60405180910390fd5b60006002600084815260200190815260200160002090506000816009015467ffffffffffffffff811115612a7b57612a7a6145c1565b5b604051908082528060200260200182016040528015612ab457816020015b612aa1613f55565b815260200190600190039081612a995790505b509050600080600190505b83600901548111612c855760008460080160008381526020019081526020016000209050604051806101400160405280826000015481526020018260010160009054906101000a900473ffffffffffffffffffffffffffffffffffffffff1673ffffffffffffffffffffffffffffffffffffffff1681526020018260020160009054906101000a900473ffffffffffffffffffffffffffffffffffffffff1673ffffffffffffffffffffffffffffffffffffffff1681526020018260030154815260200182600401548152602001826005018054612b9c906152a5565b80601f0160208091040260200160405190810160405280929190818152602001828054612bc8906152a5565b8015612c155780601f10612bea57610100808354040283529160200191612c15565b820191906000526020600020905b815481529060010190602001808311612bf857829003601f168201915b505050505081526020018260060154815260200182600701548152602001826008015481526020018260090154815250848481518110612c5857612c576152d7565b5b60200260200101819052508280612c6e90615335565b935050508080612c7d90615335565b915050612abf565b50819350505050919050565b6060600060035467ffffffffffffffff811115612cb157612cb06145c1565b5b604051908082528060200260200182016040528015612cea57816020015b612cd7613fd4565b815260200190600190039081612ccf5790505b50905060005b600354811015612f5557600060026000600184612d0d9190615456565b8152602001908152602001600020905060405180610140016040528082600001548152602001826001018054612d42906152a5565b80601f0160208091040260200160405190810160405280929190818152602001828054612d6e906152a5565b8015612dbb5780601f10612d9057610100808354040283529160200191612dbb565b820191906000526020600020905b815481529060010190602001808311612d9e57829003601f168201915b50505050508152602001826003015481526020018260050154815260200182600601548152602001826009015481526020018260040154815260200182600a018054612e06906152a5565b80601f0160208091040260200160405190810160405280929190818152602001828054612e32906152a5565b8015612e7f5780601f10612e5457610100808354040283529160200191612e7f565b820191906000526020600020905b815481529060010190602001808311612e6257829003601f168201915b5050505050815260200182600b018054612e98906152a5565b80601f0160208091040260200160405190810160405280929190818152602001828054612ec4906152a5565b8015612f115780601f10612ee657610100808354040283529160200191612f11565b820191906000526020600020905b815481529060010190602001808311612ef457829003601f168201915b5050505050815260200182600c0154815250838381518110612f3657612f356152d7565b5b6020026020010181905250508080612f4d90615335565b915050612cf0565b508091505090565b600060026000868152602001908152602001600020600701600085815260200190815260200160002090508281600b019080519060200190612fa0929190613ecf565b508181600c019080519060200190612fb9929190613ecf565b505050505050565b600080600260008481526020019081526020016000206000015414159050919050565b612fed81612fc1565b61302c576040517f08c379a000000000000000000000000000000000000000000000000000000000815260040161302390615b78565b60405180910390fd5b60006002600083815260200190815260200160002090506040518060400160405280600881526020017f566572696669656400000000000000000000000000000000000000000000000081525081600b019080519060200190613090929190613ecf565b505050565b60008060026000848152602001908152602001600020905060008160020160008673ffffffffffffffffffffffffffffffffffffffff1673ffffffffffffffffffffffffffffffffffffffff168152602001908152602001600020905080600101549250505092915050565b61310a85612fc1565b613149576040517f08c379a0000000000000000000000000000000000000000000000000000000008152600401613140906153ca565b60405180910390fd5b600060026000878152602001908152602001600020905061316a3387611ea4565b6131a9576040517f08c379a00000000000000000000000000000000000000000000000000000000081526004016131a090615436565b60405180910390fd5b600085116131ec576040517f08c379a00000000000000000000000000000000000000000000000000000000081526004016131e390615c0a565b60405180910390fd5b6000600182600901546131ff9190615456565b905060006002600089815260200190815260200160002060070160008381526020019081526020016000209050818160000181905550338160010160006101000a81548173ffffffffffffffffffffffffffffffffffffffff021916908373ffffffffffffffffffffffffffffffffffffffff160217905550868160020181905550858160030160006101000a81548173ffffffffffffffffffffffffffffffffffffffff021916908373ffffffffffffffffffffffffffffffffffffffff1602179055506040518060400160405280600781526020017f50656e64696e6700000000000000000000000000000000000000000000000000815250816004019080519060200190613311929190613ecf565b508481600501908051906020019061332a929190613ecf565b50600081600601819055506000816007018190555042816008018190555061012c426133569190615456565b81600901819055508381600a019080519060200190613376929190613ecf565b506040518060400160405280600a81526020017f494e2050726f636573730000000000000000000000000000000000000000000081525081600b0190805190602001906133c4929190613ecf565b506040518060400160405280600a81526020017f494e2d50726f636573730000000000000000000000000000000000000000000081525081600c019080519060200190613412929190613ecf565b50600081600f01819055506040518060400160405280600a81526020017f494e2d50726f636573730000000000000000000000000000000000000000000081525081600e01908051906020019061346a929190613ecf565b506040518060400160405280600b81526020017f556e2d566572696669656400000000000000000000000000000000000000000081525081600d0190805190602001906134b8929190613ecf565b508183600901819055505050505050505050565b600060026000848152602001908152602001600020600701600083815260200190815260200160002090506040518060400160405280600881526020017f566572696669656400000000000000000000000000000000000000000000000081525081600d019080519060200190613544929190613ecf565b50505050565b60075481565b60008060026000858152602001908152602001600020600801600084815260200190815260200160002090504281600401541191505092915050565b60008060008054906101000a900473ffffffffffffffffffffffffffffffffffffffff1673ffffffffffffffffffffffffffffffffffffffff1663feaf968c6040518163ffffffff1660e01b815260040160a060405180830381865afa1580156135fa573d6000803e3d6000fd5b505050506040513d601f19601f8201168201806040525081019061361e9190615c96565b5050509150508091505090565b600080600260008481526020019081526020016000206008016000858152602001908152602001600020600001541415905092915050565b61366b613fd4565b61367482612fc1565b6136b3576040517f08c379a00000000000000000000000000000000000000000000000000000000081526004016136aa906153ca565b60405180910390fd5b60006002600084815260200190815260200160002090506000604051806101400160405280836000015481526020018360010180546136f1906152a5565b80601f016020809104026020016040519081016040528092919081815260200182805461371d906152a5565b801561376a5780601f1061373f5761010080835404028352916020019161376a565b820191906000526020600020905b81548152906001019060200180831161374d57829003601f168201915b50505050508152602001836003015481526020018360090154815260200183600401548152602001836005015481526020018360060154815260200183600a0180546137b5906152a5565b80601f01602080910402602001604051908101604052809291908181526020018280546137e1906152a5565b801561382e5780601f106138035761010080835404028352916020019161382e565b820191906000526020600020905b81548152906001019060200180831161381157829003601f168201915b5050505050815260200183600b018054613847906152a5565b80601f0160208091040260200160405190810160405280929190818152602001828054613873906152a5565b80156138c05780601f10613895576101008083540402835291602001916138c0565b820191906000526020600020905b8154815290600101906020018083116138a357829003601f168201915b5050505050815260200183600c015481525090508092505050919050565b600060636002600084815260200190815260200160002060030154109050919050565b6000600154905090565b61391481612fc1565b613953576040517f08c379a000000000000000000000000000000000000000000000000000000000815260040161394a90615b78565b60405180910390fd5b6000600260008381526020019081526020016000209050613973826138de565b6139b2576040517f08c379a00000000000000000000000000000000000000000000000000000000081526004016139a990615d83565b60405180910390fd5b6139bc3383611ea4565b156139fc576040517f08c379a00000000000000000000000000000000000000000000000000000000081526004016139f390615e15565b60405180910390fd5b600060405180604001604052803373ffffffffffffffffffffffffffffffffffffffff16815260200160008152509050808260020160003373ffffffffffffffffffffffffffffffffffffffff1673ffffffffffffffffffffffffffffffffffffffff16815260200190815260200160002060008201518160000160006101000a81548173ffffffffffffffffffffffffffffffffffffffff021916908373ffffffffffffffffffffffffffffffffffffffff160217905550602082015181600101559050506001826003016000828254613ad79190615456565b92505081905550505050565b613aec82612fc1565b613b2b576040517f08c379a0000000000000000000000000000000000000000000000000000000008152600401613b22906153ca565b60405180910390fd5b613b358183613d33565b613b74576040517f08c379a0000000000000000000000000000000000000000000000000000000008152600401613b6b9061554c565b60405180910390fd5b613b7e8282613550565b15613bbe576040517f08c379a0000000000000000000000000000000000000000000000000000000008152600401613bb590615794565b60405180910390fd5b600060026000848152602001908152602001600020600701600083815260200190815260200160002090506040518060400160405280600781526020017f50656e64696e67000000000000000000000000000000000000000000000000008152508051906020012081600401604051613c379190615a83565b604051809103902014613c7f576040517f08c379a0000000000000000000000000000000000000000000000000000000008152600401613c7690615ea7565b60405180910390fd5b613c898383613d98565b613cc8576040517f08c379a0000000000000000000000000000000000000000000000000000000008152600401613cbf90615f39565b60405180910390fd5b6040518060400160405280600681526020017f436c6f7365640000000000000000000000000000000000000000000000000000815250816004019080519060200190613d15929190613ecf565b50505050565b60066020528060005260406000206000915090505481565b600080600260008481526020019081526020016000206007016000858152602001908152602001600020600001541415905092915050565b60008060026000848152602001908152602001600020905042816006015411915050919050565b60015481565b600080600260008581526020019081526020016000209050600081600701600085815260200190815260200160002090508060010160009054906101000a900473ffffffffffffffffffffffffffffffffffffffff1673ffffffffffffffffffffffffffffffffffffffff163373ffffffffffffffffffffffffffffffffffffffff16149250505092915050565b60405180610200016040528060008152602001600073ffffffffffffffffffffffffffffffffffffffff16815260200160008152602001600073ffffffffffffffffffffffffffffffffffffffff1681526020016060815260200160608152602001600081526020016000815260200160008152602001600081526020016060815260200160608152602001606081526020016060815260200160608152602001600081525090565b828054613edb906152a5565b90600052602060002090601f016020900481019282613efd5760008555613f44565b82601f10613f1657805160ff1916838001178555613f44565b82800160010185558215613f44579182015b82811115613f43578251825591602001919060010190613f28565b5b509050613f519190614027565b5090565b60405180610140016040528060008152602001600073ffffffffffffffffffffffffffffffffffffffff168152602001600073ffffffffffffffffffffffffffffffffffffffff168152602001600081526020016000815260200160608152602001600081526020016000815260200160008152602001600081525090565b604051806101400160405280600081526020016060815260200160008152602001600081526020016000815260200160008152602001600081526020016060815260200160608152602001600081525090565b5b80821115614040576000816000905550600101614028565b5090565b6000604051905090565b600080fd5b600080fd5b6000819050919050565b61406b81614058565b811461407657600080fd5b50565b60008135905061408881614062565b92915050565b6000602082840312156140a4576140a361404e565b5b60006140b284828501614079565b91505092915050565b600081519050919050565b600082825260208201905092915050565b6000819050602082019050919050565b6140f081614058565b82525050565b600073ffffffffffffffffffffffffffffffffffffffff82169050919050565b6000614121826140f6565b9050919050565b61413181614116565b82525050565b600081519050919050565b600082825260208201905092915050565b60005b83811015614171578082015181840152602081019050614156565b83811115614180576000848401525b50505050565b6000601f19601f8301169050919050565b60006141a282614137565b6141ac8185614142565b93506141bc818560208601614153565b6141c581614186565b840191505092915050565b6000610200830160008301516141e960008601826140e7565b5060208301516141fc6020860182614128565b50604083015161420f60408601826140e7565b5060608301516142226060860182614128565b506080830151848203608086015261423a8282614197565b91505060a083015184820360a08601526142548282614197565b91505060c083015161426960c08601826140e7565b5060e083015161427c60e08601826140e7565b506101008301516142916101008601826140e7565b506101208301516142a66101208601826140e7565b506101408301518482036101408601526142c08282614197565b9150506101608301518482036101608601526142dc8282614197565b9150506101808301518482036101808601526142f88282614197565b9150506101a08301518482036101a08601526143148282614197565b9150506101c08301518482036101c08601526143308282614197565b9150506101e08301516143476101e08601826140e7565b508091505092915050565b600061435e83836141d0565b905092915050565b6000602082019050919050565b600061437e826140bb565b61438881856140c6565b93508360208202850161439a856140d7565b8060005b858110156143d657848403895281516143b78582614352565b94506143c283614366565b925060208a0199505060018101905061439e565b50829750879550505050505092915050565b600060208201905081810360008301526144028184614373565b905092915050565b600080600080608085870312156144245761442361404e565b5b600061443287828801614079565b945050602061444387828801614079565b935050604061445487828801614079565b925050606061446587828801614079565b91505092959194509250565b61447a81614116565b811461448557600080fd5b50565b60008135905061449781614471565b92915050565b600080600080608085870312156144b7576144b661404e565b5b60006144c587828801614079565b94505060206144d687828801614079565b93505060406144e787828801614488565b92505060606144f887828801614079565b91505092959194509250565b61450d81614058565b82525050565b60006020820190506145286000830184614504565b92915050565b6000806000606084860312156145475761454661404e565b5b600061455586828701614488565b935050602061456686828701614079565b925050604061457786828701614079565b9150509250925092565b60008115159050919050565b61459681614581565b82525050565b60006020820190506145b1600083018461458d565b92915050565b600080fd5b600080fd5b7f4e487b7100000000000000000000000000000000000000000000000000000000600052604160045260246000fd5b6145f982614186565b810181811067ffffffffffffffff82111715614618576146176145c1565b5b80604052505050565b600061462b614044565b905061463782826145f0565b919050565b600067ffffffffffffffff821115614657576146566145c1565b5b61466082614186565b9050602081019050919050565b82818337600083830152505050565b600061468f61468a8461463c565b614621565b9050828152602081018484840111156146ab576146aa6145bc565b5b6146b684828561466d565b509392505050565b600082601f8301126146d3576146d26145b7565b5b81356146e384826020860161467c565b91505092915050565b600080600080608085870312156147065761470561404e565b5b600061471487828801614079565b945050602061472587828801614079565b935050604061473687828801614079565b925050606085013567ffffffffffffffff81111561475757614756614053565b5b614763878288016146be565b91505092959194509250565b600080604083850312156147865761478561404e565b5b600061479485828601614079565b92505060206147a585828601614079565b9150509250929050565b6000610200830160008301516147c860008601826140e7565b5060208301516147db6020860182614128565b5060408301516147ee60408601826140e7565b5060608301516148016060860182614128565b50608083015184820360808601526148198282614197565b91505060a083015184820360a08601526148338282614197565b91505060c083015161484860c08601826140e7565b5060e083015161485b60e08601826140e7565b506101008301516148706101008601826140e7565b506101208301516148856101208601826140e7565b5061014083015184820361014086015261489f8282614197565b9150506101608301518482036101608601526148bb8282614197565b9150506101808301518482036101808601526148d78282614197565b9150506101a08301518482036101a08601526148f38282614197565b9150506101c08301518482036101c086015261490f8282614197565b9150506101e08301516149266101e08601826140e7565b508091505092915050565b6000602082019050818103600083015261494b81846147af565b905092915050565b6000806040838503121561496a5761496961404e565b5b600061497885828601614488565b925050602061498985828601614079565b9150509250929050565b600080604083850312156149aa576149a961404e565b5b600083013567ffffffffffffffff8111156149c8576149c7614053565b5b6149d4858286016146be565b925050602083013567ffffffffffffffff8111156149f5576149f4614053565b5b614a01858286016146be565b9150509250929050565b600061014083016000830151614a2460008601826140e7565b506020830151614a376020860182614128565b506040830151614a4a6040860182614128565b506060830151614a5d60608601826140e7565b506080830151614a7060808601826140e7565b5060a083015184820360a0860152614a888282614197565b91505060c0830151614a9d60c08601826140e7565b5060e0830151614ab060e08601826140e7565b50610100830151614ac56101008601826140e7565b50610120830151614ada6101208601826140e7565b508091505092915050565b60006020820190508181036000830152614aff8184614a0b565b905092915050565b600081519050919050565b600082825260208201905092915050565b6000819050602082019050919050565b600061014083016000830151614b4c60008601826140e7565b5060208301518482036020860152614b648282614197565b9150506040830151614b7960408601826140e7565b506060830151614b8c60608601826140e7565b506080830151614b9f60808601826140e7565b5060a0830151614bb260a08601826140e7565b5060c0830151614bc560c08601826140e7565b5060e083015184820360e0860152614bdd8282614197565b915050610100830151848203610100860152614bf98282614197565b915050610120830151614c106101208601826140e7565b508091505092915050565b6000614c278383614b33565b905092915050565b6000602082019050919050565b6000614c4782614b07565b614c518185614b12565b935083602082028501614c6385614b23565b8060005b85811015614c9f5784840389528151614c808582614c1b565b9450614c8b83614c2f565b925060208a01995050600181019050614c67565b50829750879550505050505092915050565b60006020820190508181036000830152614ccb8184614c3c565b905092915050565b614cdc81614581565b8114614ce757600080fd5b50565b600081359050614cf981614cd3565b92915050565b600080600060608486031215614d1857614d1761404e565b5b6000614d2686828701614079565b9350506020614d3786828701614079565b9250506040614d4886828701614cea565b9150509250925092565b600081519050919050565b600082825260208201905092915050565b6000819050602082019050919050565b600061014083016000830151614d9760008601826140e7565b506020830151614daa6020860182614128565b506040830151614dbd6040860182614128565b506060830151614dd060608601826140e7565b506080830151614de360808601826140e7565b5060a083015184820360a0860152614dfb8282614197565b91505060c0830151614e1060c08601826140e7565b5060e0830151614e2360e08601826140e7565b50610100830151614e386101008601826140e7565b50610120830151614e4d6101208601826140e7565b508091505092915050565b6000614e648383614d7e565b905092915050565b6000602082019050919050565b6000614e8482614d52565b614e8e8185614d5d565b935083602082028501614ea085614d6e565b8060005b85811015614edc5784840389528151614ebd8582614e58565b9450614ec883614e6c565b925060208a01995050600181019050614ea4565b50829750879550505050505092915050565b60006020820190508181036000830152614f088184614e79565b905092915050565b60008060008060808587031215614f2a57614f2961404e565b5b6000614f3887828801614079565b9450506020614f4987828801614079565b935050604085013567ffffffffffffffff811115614f6a57614f69614053565b5b614f76878288016146be565b925050606085013567ffffffffffffffff811115614f9757614f96614053565b5b614fa3878288016146be565b91505092959194509250565b600080600080600060a08688031215614fcb57614fca61404e565b5b6000614fd988828901614079565b9550506020614fea88828901614079565b9450506040614ffb88828901614488565b935050606086013567ffffffffffffffff81111561501c5761501b614053565b5b615028888289016146be565b925050608086013567ffffffffffffffff81111561504957615048614053565b5b615055888289016146be565b9150509295509295909350565b6000819050919050565b61507581615062565b82525050565b6000602082019050615090600083018461506c565b92915050565b6000610140830160008301516150af60008601826140e7565b50602083015184820360208601526150c78282614197565b91505060408301516150dc60408601826140e7565b5060608301516150ef60608601826140e7565b50608083015161510260808601826140e7565b5060a083015161511560a08601826140e7565b5060c083015161512860c08601826140e7565b5060e083015184820360e08601526151408282614197565b91505061010083015184820361010086015261515c8282614197565b9150506101208301516151736101208601826140e7565b508091505092915050565b600060208201905081810360008301526151988184615096565b905092915050565b6151a981615062565b81146151b457600080fd5b50565b6000813590506151c6816151a0565b92915050565b6000602082840312156151e2576151e161404e565b5b60006151f0848285016151b7565b91505092915050565b600082825260208201905092915050565b7f436c756220646f6573206e6f7420657869737400000000000000000000000000600082015250565b60006152406013836151f9565b915061524b8261520a565b602082019050919050565b6000602082019050818103600083015261526f81615233565b9050919050565b7f4e487b7100000000000000000000000000000000000000000000000000000000600052602260045260246000fd5b600060028204905060018216806152bd57607f821691505b602082108114156152d1576152d0615276565b5b50919050565b7f4e487b7100000000000000000000000000000000000000000000000000000000600052603260045260246000fd5b7f4e487b7100000000000000000000000000000000000000000000000000000000600052601160045260246000fd5b600061534082614058565b91507fffffffffffffffffffffffffffffffffffffffffffffffffffffffffffffffff82141561537357615372615306565b5b600182019050919050565b7f74686520636c756220646f6573206e6f74206578697374000000000000000000600082015250565b60006153b46017836151f9565b91506153bf8261537e565b602082019050919050565b600060208201905081810360008301526153e3816153a7565b9050919050565b7f596f7520617265206e6f742061206d656d626572206f662074686520636c7562600082015250565b60006154206020836151f9565b915061542b826153ea565b602082019050919050565b6000602082019050818103600083015261544f81615413565b9050919050565b600061546182614058565b915061546c83614058565b9250827fffffffffffffffffffffffffffffffffffffffffffffffffffffffffffffffff038211156154a1576154a0615306565b5b828201905092915050565b6154b581614116565b82525050565b60006080820190506154d06000830187614504565b6154dd60208301866154ac565b6154ea6040830185614504565b6154f76060830184614504565b95945050505050565b7f5468652070726f706f73616c20646f6573206e6f742065786973740000000000600082015250565b6000615536601b836151f9565b915061554182615500565b602082019050919050565b6000602082019050818103600083015261556581615529565b9050919050565b7f4f6e6c79207468652063726561746f72206f66207468652070726f706f73616c60008201527f2063616e20657865637574652069740000000000000000000000000000000000602082015250565b60006155c8602f836151f9565b91506155d38261556c565b604082019050919050565b600060208201905081810360008301526155f7816155bb565b9050919050565b7f54686520616d6f756e7420657863656564732074686520706f6f6c206f66207460008201527f686520636c756200000000000000000000000000000000000000000000000000602082015250565b600061565a6027836151f9565b9150615665826155fe565b604082019050919050565b600060208201905081810360008301526156898161564d565b9050919050565b7f5468652070726f706f73616c20686173206e6f74206265656e20617070726f7660008201527f6564000000000000000000000000000000000000000000000000000000000000602082015250565b60006156ec6022836151f9565b91506156f782615690565b604082019050919050565b6000602082019050818103600083015261571b816156df565b9050919050565b7f596f752063616e2774206265666f72652074686520566f74696e67206465616460008201527f6c696e6500000000000000000000000000000000000000000000000000000000602082015250565b600061577e6024836151f9565b915061578982615722565b604082019050919050565b600060208201905081810360008301526157ad81615771565b9050919050565b60006157bf82614058565b91506157ca83614058565b9250828210156157dd576157dc615306565b5b828203905092915050565b7f596f75206d7573742073656e642045564d4f5320746f20636f6e74726962757460008201527f6500000000000000000000000000000000000000000000000000000000000000602082015250565b60006158446021836151f9565b915061584f826157e8565b604082019050919050565b6000602082019050818103600083015261587381615837565b9050919050565b7f436c756220697320636c6f736564000000000000000000000000000000000000600082015250565b60006158b0600e836151f9565b91506158bb8261587a565b602082019050919050565b600060208201905081810360008301526158df816158a3565b9050919050565b7f566f74696e6720506572696f642046696e697368656400000000000000000000600082015250565b600061591c6016836151f9565b9150615927826158e6565b602082019050919050565b6000602082019050818103600083015261594b8161590f565b9050919050565b7f596f75206861766520616c726561647920766f746564206f6e2074686973207060008201527f726f706f73616c00000000000000000000000000000000000000000000000000602082015250565b60006159ae6027836151f9565b91506159b982615952565b604082019050919050565b600060208201905081810360008301526159dd816159a1565b9050919050565b600081905092915050565b60008190508160005260206000209050919050565b60008154615a11816152a5565b615a1b81866159e4565b94506001821660008114615a365760018114615a4757615a7a565b60ff19831686528186019350615a7a565b615a50856159ef565b60005b83811015615a7257815481890152600182019150602081019050615a53565b838801955050505b50505092915050565b6000615a8f8284615a04565b915081905092915050565b7f5468652070726f706f73616c206973206e6f206c6f6e6765722070656e64696e60008201527f6700000000000000000000000000000000000000000000000000000000000000602082015250565b6000615af66021836151f9565b9150615b0182615a9a565b604082019050919050565b60006020820190508181036000830152615b2581615ae9565b9050919050565b7f54686520636c756220646f6573206e6f74206578697374000000000000000000600082015250565b6000615b626017836151f9565b9150615b6d82615b2c565b602082019050919050565b60006020820190508181036000830152615b9181615b55565b9050919050565b7f54686520616d6f756e74206f66207468652070726f706f73616c206d7573742060008201527f62652067726561746572207468616e2030000000000000000000000000000000602082015250565b6000615bf46031836151f9565b9150615bff82615b98565b604082019050919050565b60006020820190508181036000830152615c2381615be7565b9050919050565b600069ffffffffffffffffffff82169050919050565b615c4981615c2a565b8114615c5457600080fd5b50565b600081519050615c6681615c40565b92915050565b600081519050615c7b816151a0565b92915050565b600081519050615c9081614062565b92915050565b600080600080600060a08688031215615cb257615cb161404e565b5b6000615cc088828901615c57565b9550506020615cd188828901615c6c565b9450506040615ce288828901615c81565b9350506060615cf388828901615c81565b9250506080615d0488828901615c57565b9150509295509295909350565b7f54686520636c75622069732066756c6c2c206e6f206d6f7265206d656d62657260008201527f732063616e206265206164646564000000000000000000000000000000000000602082015250565b6000615d6d602e836151f9565b9150615d7882615d11565b604082019050919050565b60006020820190508181036000830152615d9c81615d60565b9050919050565b7f596f752061726520616c72656164792061206d656d626572206f66207468652060008201527f636c756200000000000000000000000000000000000000000000000000000000602082015250565b6000615dff6024836151f9565b9150615e0a82615da3565b604082019050919050565b60006020820190508181036000830152615e2e81615df2565b9050919050565b7f5468652070726f706f73616c206973206e6f7420696e2070656e64696e67207360008201527f7461747573000000000000000000000000000000000000000000000000000000602082015250565b6000615e916025836151f9565b9150615e9c82615e35565b604082019050919050565b60006020820190508181036000830152615ec081615e84565b9050919050565b7f4f6e6c79207468652070726f706f73616c2063726561746f722063616e20636c60008201527f6f7365207468652070726f706f73616c00000000000000000000000000000000602082015250565b6000615f236030836151f9565b9150615f2e82615ec7565b604082019050919050565b60006020820190508181036000830152615f5281615f16565b905091905056fea2646970667358221220cd5ac72f9d68c39c00e17d790d24ee881cf634797480256f869922a5cd58d25264736f6c634300080a0033",
  "linkReferences": {},
  "deployedLinkReferences": {}
}